{
  "_format": "hh-sol-artifact-1",
  "contractName": "MusicMarketplace",
  "sourceName": "solidity/contracts/MusicMarketplace.sol",
  "abi": [
    {
      "anonymous": false,
      "inputs": [
        {
          "indexed": true,
          "internalType": "uint256",
          "name": "id",
          "type": "uint256"
        },
        {
          "indexed": false,
          "internalType": "string",
          "name": "title",
          "type": "string"
        },
        {
          "indexed": false,
          "internalType": "uint256",
          "name": "price",
          "type": "uint256"
        }
      ],
      "name": "SongListed",
      "type": "event"
    },
    {
      "anonymous": false,
      "inputs": [
        {
          "indexed": true,
          "internalType": "uint256",
          "name": "id",
          "type": "uint256"
        },
        {
          "indexed": false,
          "internalType": "address",
          "name": "buyer",
          "type": "address"
        }
      ],
      "name": "SongSold",
      "type": "event"
    },
    {
      "inputs": [
        {
          "internalType": "uint256",
          "name": "_id",
          "type": "uint256"
        }
      ],
      "name": "buySong",
      "outputs": [],
      "stateMutability": "payable",
      "type": "function"
    },
    {
      "inputs": [],
      "name": "getBoughtSongs",
      "outputs": [
        {
          "components": [
            {
              "internalType": "uint256",
              "name": "id",
              "type": "uint256"
            },
            {
              "internalType": "uint256",
              "name": "price",
              "type": "uint256"
            },
            {
              "internalType": "address",
              "name": "author",
              "type": "address"
            },
            {
              "internalType": "address[]",
              "name": "buyers",
              "type": "address[]"
            },
            {
              "internalType": "string",
              "name": "title",
              "type": "string"
            }
          ],
          "internalType": "struct MusicMarketplace.Song[]",
          "name": "",
          "type": "tuple[]"
        }
      ],
      "stateMutability": "view",
      "type": "function"
    },
    {
      "inputs": [
        {
          "internalType": "uint256",
          "name": "_id",
          "type": "uint256"
        }
      ],
      "name": "getDownloadLink",
      "outputs": [
        {
          "internalType": "string",
          "name": "",
          "type": "string"
        }
      ],
      "stateMutability": "view",
      "type": "function"
    },
    {
      "inputs": [],
      "name": "getOwnedSongs",
      "outputs": [
        {
          "components": [
            {
              "internalType": "uint256",
              "name": "id",
              "type": "uint256"
            },
            {
              "internalType": "uint256",
              "name": "price",
              "type": "uint256"
            },
            {
              "internalType": "address",
              "name": "author",
              "type": "address"
            },
            {
              "internalType": "address[]",
              "name": "buyers",
              "type": "address[]"
            },
            {
              "internalType": "string",
              "name": "title",
              "type": "string"
            }
          ],
          "internalType": "struct MusicMarketplace.Song[]",
          "name": "",
          "type": "tuple[]"
        }
      ],
      "stateMutability": "view",
      "type": "function"
    },
    {
      "inputs": [],
      "name": "getSongs",
      "outputs": [
        {
          "components": [
            {
              "internalType": "uint256",
              "name": "id",
              "type": "uint256"
            },
            {
              "internalType": "uint256",
              "name": "price",
              "type": "uint256"
            },
            {
              "internalType": "address",
              "name": "author",
              "type": "address"
            },
            {
              "internalType": "address[]",
              "name": "buyers",
              "type": "address[]"
            },
            {
              "internalType": "string",
              "name": "title",
              "type": "string"
            }
          ],
          "internalType": "struct MusicMarketplace.Song[]",
          "name": "",
          "type": "tuple[]"
        }
      ],
      "stateMutability": "view",
      "type": "function"
    },
    {
      "inputs": [
        {
          "internalType": "string",
          "name": "_title",
          "type": "string"
        },
        {
          "internalType": "uint256",
          "name": "_price",
          "type": "uint256"
        },
        {
          "internalType": "string",
          "name": "_arweaveURI",
          "type": "string"
        }
      ],
      "name": "listSong",
      "outputs": [],
      "stateMutability": "nonpayable",
      "type": "function"
    }
  ],
  "bytecode": "0x608060405234801561001057600080fd5b506124e3806100206000396000f3fe6080604052600436106100555760003560e01c8063086021b31461005a5780631ad234f9146100855780634ee1f16f146100ae5780635565f660146100d9578063606a017514610104578063e850a0cc14610120575b600080fd5b34801561006657600080fd5b5061006f61015d565b60405161007c9190611c66565b60405180910390f35b34801561009157600080fd5b506100ac60048036038101906100a79190611dfd565b61065e565b005b3480156100ba57600080fd5b506100c36108dd565b6040516100d09190611c66565b60405180910390f35b3480156100e557600080fd5b506100ee610c5f565b6040516100fb9190611c66565b60405180910390f35b61011e60048036038101906101199190611e88565b610e48565b005b34801561012c57600080fd5b5061014760048036038101906101429190611e88565b61139c565b6040516101549190611eff565b60405180910390f35b60606000805b60008054905081101561029f57600080828154811061018557610184611f21565b5b906000526020600020906005020160030180549050111561028c5760005b600082815481106101b7576101b6611f21565b5b90600052602060002090600502016003018054905081101561028a573373ffffffffffffffffffffffffffffffffffffffff16600083815481106101fe576101fd611f21565b5b9060005260206000209060050201600301828154811061022157610220611f21565b5b9060005260206000200160009054906101000a900473ffffffffffffffffffffffffffffffffffffffff1673ffffffffffffffffffffffffffffffffffffffff16141561027757828061027390611f93565b9350505b808061028290611fc4565b9150506101a3565b505b808061029790611fc4565b915050610163565b5060008167ffffffffffffffff16116102ed576040517f08c379a00000000000000000000000000000000000000000000000000000000081526004016102e490612059565b60405180910390fd5b60008167ffffffffffffffff1667ffffffffffffffff81111561031357610312611ca6565b5b60405190808252806020026020018201604052801561034c57816020015b610339611813565b8152602001906001900390816103315790505b50905060005b60008054905081101561065557600080828154811061037457610373611f21565b5b90600052602060002090600502016003018054905011156106425760005b600082815481106103a6576103a5611f21565b5b906000526020600020906005020160030180549050811015610640573373ffffffffffffffffffffffffffffffffffffffff16600083815481106103ed576103ec611f21565b5b906000526020600020906005020160030182815481106104105761040f611f21565b5b9060005260206000200160009054906101000a900473ffffffffffffffffffffffffffffffffffffffff1673ffffffffffffffffffffffffffffffffffffffff16141561062d576000828154811061046b5761046a611f21565b5b90600052602060002090600502016040518060a001604052908160008201548152602001600182015481526020016002820160009054906101000a900473ffffffffffffffffffffffffffffffffffffffff1673ffffffffffffffffffffffffffffffffffffffff1673ffffffffffffffffffffffffffffffffffffffff1681526020016003820180548060200260200160405190810160405280929190818152602001828054801561057357602002820191906000526020600020905b8160009054906101000a900473ffffffffffffffffffffffffffffffffffffffff1673ffffffffffffffffffffffffffffffffffffffff1681526020019060010190808311610529575b5050505050815260200160048201805461058c906120a8565b80601f01602080910402602001604051908101604052809291908181526020018280546105b8906120a8565b80156106055780601f106105da57610100808354040283529160200191610605565b820191906000526020600020905b8154815290600101906020018083116105e857829003601f168201915b50505050508152505083838151811061062157610620611f21565b5b60200260200101819052505b808061063890611fc4565b915050610392565b505b808061064d90611fc4565b915050610352565b50809250505090565b610666611813565b6000805490508160000181815250508281602001818152505033816040019073ffffffffffffffffffffffffffffffffffffffff16908173ffffffffffffffffffffffffffffffffffffffff16815250508381608001819052506000600167ffffffffffffffff8111156106dd576106dc611ca6565b5b60405190808252806020026020018201604052801561070b5781602001602082028036833780820191505090505b509050338160008151811061072357610722611f21565b5b602002602001019073ffffffffffffffffffffffffffffffffffffffff16908173ffffffffffffffffffffffffffffffffffffffff16815250508082606001819052506000829080600181540180825580915050600190039060005260206000209060050201600090919091909150600082015181600001556020820151816001015560408201518160020160006101000a81548173ffffffffffffffffffffffffffffffffffffffff021916908373ffffffffffffffffffffffffffffffffffffffff1602179055506060820151816003019080519060200190610809929190611858565b5060808201518160040190805190602001906108269291906118e2565b50505061086c6040518060400160405280601481526020017f4c697374696e672066696c65207769746820696400000000000000000000000081525083600001516116ba565b82600160008460000151815260200190815260200160002090805190602001906108979291906118e2565b5081600001517f8c88911ae6c425091c542315240c163442bec874fd23efb8be44c7c20d7c2e7486866040516108ce9291906120e9565b60405180910390a25050505050565b60606000805b60008054905081101561098b573373ffffffffffffffffffffffffffffffffffffffff166000828154811061091b5761091a611f21565b5b906000526020600020906005020160020160009054906101000a900473ffffffffffffffffffffffffffffffffffffffff1673ffffffffffffffffffffffffffffffffffffffff16141561097857818061097490611fc4565b9250505b808061098390611fc4565b9150506108e3565b5060008167ffffffffffffffff8111156109a8576109a7611ca6565b5b6040519080825280602002602001820160405280156109e157816020015b6109ce611813565b8152602001906001900390816109c65790505b50905060005b600080549050811015610c56573373ffffffffffffffffffffffffffffffffffffffff1660008281548110610a1f57610a1e611f21565b5b906000526020600020906005020160020160009054906101000a900473ffffffffffffffffffffffffffffffffffffffff1673ffffffffffffffffffffffffffffffffffffffff161415610c435760008181548110610a8157610a80611f21565b5b90600052602060002090600502016040518060a001604052908160008201548152602001600182015481526020016002820160009054906101000a900473ffffffffffffffffffffffffffffffffffffffff1673ffffffffffffffffffffffffffffffffffffffff1673ffffffffffffffffffffffffffffffffffffffff16815260200160038201805480602002602001604051908101604052809291908181526020018280548015610b8957602002820191906000526020600020905b8160009054906101000a900473ffffffffffffffffffffffffffffffffffffffff1673ffffffffffffffffffffffffffffffffffffffff1681526020019060010190808311610b3f575b50505050508152602001600482018054610ba2906120a8565b80601f0160208091040260200160405190810160405280929190818152602001828054610bce906120a8565b8015610c1b5780601f10610bf057610100808354040283529160200191610c1b565b820191906000526020600020905b815481529060010190602001808311610bfe57829003601f168201915b505050505081525050828281518110610c3757610c36611f21565b5b60200260200101819052505b8080610c4e90611fc4565b9150506109e7565b50809250505090565b60606000805480602002602001604051908101604052809291908181526020016000905b82821015610e3f57838290600052602060002090600502016040518060a001604052908160008201548152602001600182015481526020016002820160009054906101000a900473ffffffffffffffffffffffffffffffffffffffff1673ffffffffffffffffffffffffffffffffffffffff1673ffffffffffffffffffffffffffffffffffffffff16815260200160038201805480602002602001604051908101604052809291908181526020018280548015610d9557602002820191906000526020600020905b8160009054906101000a900473ffffffffffffffffffffffffffffffffffffffff1673ffffffffffffffffffffffffffffffffffffffff1681526020019060010190808311610d4b575b50505050508152602001600482018054610dae906120a8565b80601f0160208091040260200160405190810160405280929190818152602001828054610dda906120a8565b8015610e275780601f10610dfc57610100808354040283529160200191610e27565b820191906000526020600020905b815481529060010190602001808311610e0a57829003601f168201915b50505050508152505081526020019060010190610c83565b50505050905090565b80806000805490501015610e91576040517f08c379a0000000000000000000000000000000000000000000000000000000008152600401610e8890612165565b60405180910390fd5b8160008181548110610ea657610ea5611f21565b5b906000526020600020906005020160020160009054906101000a900473ffffffffffffffffffffffffffffffffffffffff1673ffffffffffffffffffffffffffffffffffffffff163373ffffffffffffffffffffffffffffffffffffffff161415610f46576040517f08c379a0000000000000000000000000000000000000000000000000000000008152600401610f3d906121d1565b60405180910390fd5b826000808281548110610f5c57610f5b611f21565b5b90600052602060002090600502016003018054905011610fb1576040517f08c379a0000000000000000000000000000000000000000000000000000000008152600401610fa89061223d565b60405180910390fd5b60006001905060005b60008381548110610fce57610fcd611f21565b5b906000526020600020906005020160030180549050811015611137573373ffffffffffffffffffffffffffffffffffffffff166000848154811061101557611014611f21565b5b9060005260206000209060050201600301828154811061103857611037611f21565b5b9060005260206000200160009054906101000a900473ffffffffffffffffffffffffffffffffffffffff1673ffffffffffffffffffffffffffffffffffffffff1614156111245761111f6040518060400160405280600d81526020017f466f756e642062757965723a2000000000000000000000000000000000000000815250600085815481106110cc576110cb611f21565b5b906000526020600020906005020160030183815481106110ef576110ee611f21565b5b9060005260206000200160009054906101000a900473ffffffffffffffffffffffffffffffffffffffff16611756565b600091505b808061112f90611fc4565b915050610fba565b5080611178576040517f08c379a000000000000000000000000000000000000000000000000000000000815260040161116f906122a9565b60405180910390fd5b6000858154811061118c5761118b611f21565b5b9060005260206000209060050201600101543410156111e0576040517f08c379a00000000000000000000000000000000000000000000000000000000081526004016111d790612315565b60405180910390fd5b60008086815481106111f5576111f4611f21565b5b906000526020600020906005020160020160009054906101000a900473ffffffffffffffffffffffffffffffffffffffff16905060008173ffffffffffffffffffffffffffffffffffffffff163460405161124f90612366565b60006040518083038185875af1925050503d806000811461128c576040519150601f19603f3d011682016040523d82523d6000602084013e611291565b606091505b50509050806112d5576040517f08c379a00000000000000000000000000000000000000000000000000000000081526004016112cc906123c7565b60405180910390fd5b600087815481106112e9576112e8611f21565b5b9060005260206000209060050201600301339080600181540180825580915050600190039060005260206000200160009091909190916101000a81548173ffffffffffffffffffffffffffffffffffffffff021916908373ffffffffffffffffffffffffffffffffffffffff160217905550867f97dc5250837a3699c0e8dcfdf7abadc39e453fd7a7a27039c4d1a5819f0891f23360405161138b91906123f6565b60405180910390a250505050505050565b6060818060008054905010156113e7576040517f08c379a00000000000000000000000000000000000000000000000000000000081526004016113de90612165565b60405180910390fd5b8260008082815481106113fd576113fc611f21565b5b90600052602060002090600502016003018054905011611452576040517f08c379a00000000000000000000000000000000000000000000000000000000081526004016114499061223d565b60405180910390fd5b6000805b6000838154811061146a57611469611f21565b5b9060005260206000209060050201600301805490508110156115d3573373ffffffffffffffffffffffffffffffffffffffff16600084815481106114b1576114b0611f21565b5b906000526020600020906005020160030182815481106114d4576114d3611f21565b5b9060005260206000200160009054906101000a900473ffffffffffffffffffffffffffffffffffffffff1673ffffffffffffffffffffffffffffffffffffffff1614156115c0576115bb6040518060400160405280600d81526020017f466f756e642062757965723a20000000000000000000000000000000000000008152506000858154811061156857611567611f21565b5b9060005260206000209060050201600301838154811061158b5761158a611f21565b5b9060005260206000200160009054906101000a900473ffffffffffffffffffffffffffffffffffffffff16611756565b600191505b80806115cb90611fc4565b915050611456565b5080611614576040517f08c379a000000000000000000000000000000000000000000000000000000000815260040161160b9061245d565b60405180910390fd5b600160008681526020019081526020016000208054611632906120a8565b80601f016020809104026020016040519081016040528092919081815260200182805461165e906120a8565b80156116ab5780601f10611680576101008083540402835291602001916116ab565b820191906000526020600020905b81548152906001019060200180831161168e57829003601f168201915b50505050509350505050919050565b61175282826040516024016116d09291906120e9565b6040516020818303038152906040527fb60e72cc000000000000000000000000000000000000000000000000000000007bffffffffffffffffffffffffffffffffffffffffffffffffffffffff19166020820180517bffffffffffffffffffffffffffffffffffffffffffffffffffffffff83818316178352505050506117f2565b5050565b6117ee828260405160240161176c92919061247d565b6040516020818303038152906040527f319af333000000000000000000000000000000000000000000000000000000007bffffffffffffffffffffffffffffffffffffffffffffffffffffffff19166020820180517bffffffffffffffffffffffffffffffffffffffffffffffffffffffff83818316178352505050506117f2565b5050565b60006a636f6e736f6c652e6c6f679050600080835160208501845afa505050565b6040518060a001604052806000815260200160008152602001600073ffffffffffffffffffffffffffffffffffffffff16815260200160608152602001606081525090565b8280548282559060005260206000209081019282156118d1579160200282015b828111156118d05782518260006101000a81548173ffffffffffffffffffffffffffffffffffffffff021916908373ffffffffffffffffffffffffffffffffffffffff16021790555091602001919060010190611878565b5b5090506118de9190611968565b5090565b8280546118ee906120a8565b90600052602060002090601f0160209004810192826119105760008555611957565b82601f1061192957805160ff1916838001178555611957565b82800160010185558215611957579182015b8281111561195657825182559160200191906001019061193b565b5b5090506119649190611968565b5090565b5b80821115611981576000816000905550600101611969565b5090565b600081519050919050565b600082825260208201905092915050565b6000819050602082019050919050565b6000819050919050565b6119c4816119b1565b82525050565b600073ffffffffffffffffffffffffffffffffffffffff82169050919050565b60006119f5826119ca565b9050919050565b611a05816119ea565b82525050565b600081519050919050565b600082825260208201905092915050565b6000819050602082019050919050565b6000611a4383836119fc565b60208301905092915050565b6000602082019050919050565b6000611a6782611a0b565b611a718185611a16565b9350611a7c83611a27565b8060005b83811015611aad578151611a948882611a37565b9750611a9f83611a4f565b925050600181019050611a80565b5085935050505092915050565b600081519050919050565b600082825260208201905092915050565b60005b83811015611af4578082015181840152602081019050611ad9565b83811115611b03576000848401525b50505050565b6000601f19601f8301169050919050565b6000611b2582611aba565b611b2f8185611ac5565b9350611b3f818560208601611ad6565b611b4881611b09565b840191505092915050565b600060a083016000830151611b6b60008601826119bb565b506020830151611b7e60208601826119bb565b506040830151611b9160408601826119fc565b5060608301518482036060860152611ba98282611a5c565b91505060808301518482036080860152611bc38282611b1a565b9150508091505092915050565b6000611bdc8383611b53565b905092915050565b6000602082019050919050565b6000611bfc82611985565b611c068185611990565b935083602082028501611c18856119a1565b8060005b85811015611c545784840389528151611c358582611bd0565b9450611c4083611be4565b925060208a01995050600181019050611c1c565b50829750879550505050505092915050565b60006020820190508181036000830152611c808184611bf1565b905092915050565b6000604051905090565b600080fd5b600080fd5b600080fd5b600080fd5b7f4e487b7100000000000000000000000000000000000000000000000000000000600052604160045260246000fd5b611cde82611b09565b810181811067ffffffffffffffff82111715611cfd57611cfc611ca6565b5b80604052505050565b6000611d10611c88565b9050611d1c8282611cd5565b919050565b600067ffffffffffffffff821115611d3c57611d3b611ca6565b5b611d4582611b09565b9050602081019050919050565b82818337600083830152505050565b6000611d74611d6f84611d21565b611d06565b905082815260208101848484011115611d9057611d8f611ca1565b5b611d9b848285611d52565b509392505050565b600082601f830112611db857611db7611c9c565b5b8135611dc8848260208601611d61565b91505092915050565b611dda816119b1565b8114611de557600080fd5b50565b600081359050611df781611dd1565b92915050565b600080600060608486031215611e1657611e15611c92565b5b600084013567ffffffffffffffff811115611e3457611e33611c97565b5b611e4086828701611da3565b9350506020611e5186828701611de8565b925050604084013567ffffffffffffffff811115611e7257611e71611c97565b5b611e7e86828701611da3565b9150509250925092565b600060208284031215611e9e57611e9d611c92565b5b6000611eac84828501611de8565b91505092915050565b600082825260208201905092915050565b6000611ed182611aba565b611edb8185611eb5565b9350611eeb818560208601611ad6565b611ef481611b09565b840191505092915050565b60006020820190508181036000830152611f198184611ec6565b905092915050565b7f4e487b7100000000000000000000000000000000000000000000000000000000600052603260045260246000fd5b7f4e487b7100000000000000000000000000000000000000000000000000000000600052601160045260246000fd5b600067ffffffffffffffff82169050919050565b6000611f9e82611f7f565b915067ffffffffffffffff821415611fb957611fb8611f50565b5b600182019050919050565b6000611fcf826119b1565b91507fffffffffffffffffffffffffffffffffffffffffffffffffffffffffffffffff82141561200257612001611f50565b5b600182019050919050565b7f596f7520626f75676874206e6f20736f6e677300000000000000000000000000600082015250565b6000612043601383611eb5565b915061204e8261200d565b602082019050919050565b6000602082019050818103600083015261207281612036565b9050919050565b7f4e487b7100000000000000000000000000000000000000000000000000000000600052602260045260246000fd5b600060028204905060018216806120c057607f821691505b602082108114156120d4576120d3612079565b5b50919050565b6120e3816119b1565b82525050565b600060408201905081810360008301526121038185611ec6565b905061211260208301846120da565b9392505050565b7f54686520736f6e6720646f6573206e6f74206578697374000000000000000000600082015250565b600061214f601783611eb5565b915061215a82612119565b602082019050919050565b6000602082019050818103600083015261217e81612142565b9050919050565b7f596f75206172652074686520617574686f72206f66207468697320736f6e6700600082015250565b60006121bb601f83611eb5565b91506121c682612185565b602082019050919050565b600060208201905081810360008301526121ea816121ae565b9050919050565b7f54686520736f6e6720686173206e6f2062757965727300000000000000000000600082015250565b6000612227601683611eb5565b9150612232826121f1565b602082019050919050565b600060208201905081810360008301526122568161221a565b9050919050565b7f596f7520616c7265616479206f776e207468697320736f6e6700000000000000600082015250565b6000612293601983611eb5565b915061229e8261225d565b602082019050919050565b600060208201905081810360008301526122c281612286565b9050919050565b7f4e6f7420656e6f7567682066756e647300000000000000000000000000000000600082015250565b60006122ff601083611eb5565b915061230a826122c9565b602082019050919050565b6000602082019050818103600083015261232e816122f2565b9050919050565b600081905092915050565b50565b6000612350600083612335565b915061235b82612340565b600082019050919050565b600061237182612343565b9150819050919050565b7f4661696c656420746f2073656e64204574686572000000000000000000000000600082015250565b60006123b1601483611eb5565b91506123bc8261237b565b602082019050919050565b600060208201905081810360008301526123e0816123a4565b9050919050565b6123f0816119ea565b82525050565b600060208201905061240b60008301846123e7565b92915050565b7f596f7520646f206e6f74206f776e207468697320736f6e672e00000000000000600082015250565b6000612447601983611eb5565b915061245282612411565b602082019050919050565b600060208201905081810360008301526124768161243a565b9050919050565b600060408201905081810360008301526124978185611ec6565b90506124a660208301846123e7565b939250505056fea2646970667358221220c8c76bf51a66c393b1f93bddedebd0917b9d2aafe01e20b76f2a17a9ca01c62164736f6c63430008090033",
  "linkReferences": {},
  "deployedLinkReferences": {}
}